:020000042000DA
:1000000003460500B73601103737021019E62DA850
:10001000010001000100010001009C42E3CA07FE4B
:1000200090C21C430346050063DA0700010001008B
:100030000100010001001C43E3CA07FE10C3034690
:100040001500050579FA8280828001000100010017
:10005000010001008280B73701109C4363DC070078
:1000600037370110010001000100010001001C43AD
:10007000E3CA07FEB737011088C38280B737021082
:100080009C4363DC070037370210010001000100C8
:10009000010001001C43E3CA07FEB737021088C302
:1000A000828011C1B1BF8280930000001301000063
:1000B00093010000130200009302000013030000EC
:1000C00093030000130400009304000013050000D4
:1000D00093050000130600009306000013070000BC
:1000E00093070000130800009308000013090000A4
:1000F00093090000130A0000930A0000130B00008C
:10010000930B0000130C0000930C0000130D000073
:10011000930D0000130E0000930E0000130F00005B
:10012000930F00001365F00022051365F50F3731BA
:1001300000803361A100130500000E813920010009
:0A0140000100010001000100DDBF15
:10014A00411106C68547373701101CC737050020FD
:10015A00373702101CC713054517713D730050103D
:08016A00B24001454101828011
:0F01740048656C6C6F2C20576F726C64210A0009
:0400000520000000D7
:00000001FF
